:100000000C9461000C947E000C947E000C947E0095
:100010000C947E000C947E000C947E000C947E0068
:100020000C947E000C947E000C947E000C947E0058
:100030000C947E000C947E000C947E000C947E0048
:100040000C944C010C947E000C947E000C947E0069
:100050000C947E000C947E000C947E000C947E0028
:100060000C947E000C947E00000000002400270009
:100070002A0000000000250028002B0000000000DE
:1000800023002600290004040404040404040202DA
:100090000202020203030303030301020408102007
:1000A0004080010204081020010204081020000012
:1000B0000007000201000003040600000000000029
:1000C000000011241FBECFEFD8E0DEBFCDBF11E08E
:1000D000A0E0B1E0E6E9F7E002C005900D92A230A1
:1000E000B107D9F711E0A2E0B1E001C01D92AB3039
:1000F000B107E1F70E943F010C94C9030C94000082
:100100002F923F924F925F926F927F928F929F9227
:10011000AF92BF92CF92DF92EF92FF920F931F9315
:10012000DF93CF93CDB7DEB728970FB6F894DEBF35
:100130000FBECDBF80E00E9428023C01882477FCDE
:100140008094982C00D000D0EDB7FEB711821282B7
:1001500013821482C401B30120E030E040E050E09B
:10016000E12CB2E0FB2E012D112DAFEFAA2EB12C08
:10017000C12CD12C0E9424036D837E838F839887AA
:10018000FFEF2F2E312C412C512CEDB7FEB72182E1
:10019000328243825482C401B30120E030E040E067
:1001A00050E0AA24BB2465010E94240369837A835A
:1001B0008B839C83EDB7FEB72182328243825482C7
:1001C000C401B30120E032E040E050E0EFEFEE2E5A
:1001D000E3E0FE2E012D112D0E9424037B018C01F2
:1001E0006D817E810F900F900F900F906F3F710582
:1001F00019F014F06FEF70E077FF02C060E070E07C
:1002000089E00E944A0269817A816F3F710519F085
:1002100014F06FEF70E077FF02C060E070E08AE0FA
:100220000E944A02B7016F3F710519F014F06FEF99
:1002300070E077FF02C060E070E08BE00E944A024D
:1002400068EC70E080E090E00E94940128960FB680
:10025000F894DEBF0FBECDBFCF91DF911F910F91FC
:10026000FF90EF90DF90CF90BF90AF909F908F90D6
:100270007F906F905F904F903F902F900895CF9315
:10028000DF930E94ED01C0E0D0E00E948000209743
:10029000E1F30E940000F9CF1F920F920FB60F9268
:1002A00011242F933F938F939F93AF93BF9380918C
:1002B000060190910701A0910801B09109013091C8
:1002C0000A010196A11DB11D232F2D5F2D3720F0AE
:1002D0002D570196A11DB11D20930A01809306019F
:1002E00090930701A0930801B09309018091020146
:1002F00090910301A0910401B09105010196A11D07
:10030000B11D8093020190930301A0930401B09367
:100310000501BF91AF919F918F913F912F910F90C8
:100320000FBE0F901F9018959B01AC017FB7F894FA
:100330008091020190910301A0910401B091050107
:1003400066B5A89B05C06F3F19F00196A11DB11DB0
:100350007FBFBA2FA92F982F8827860F911DA11D27
:10036000B11D62E0880F991FAA1FBB1F6A95D1F7C4
:10037000BC012DC0FFB7F894809102019091030158
:10038000A0910401B0910501E6B5A89B05C0EF3F1F
:1003900019F00196A11DB11DFFBFBA2FA92F982FEB
:1003A00088278E0F911DA11DB11DE2E0880F991FB6
:1003B000AA1FBB1FEA95D1F7861B970B885E934057
:1003C000C8F2215030404040504068517C4F2115C8
:1003D00031054105510571F60895789484B5826020
:1003E00084BD84B5816084BD85B5826085BD85B5D9
:1003F000816085BDEEE6F0E0808181608083E1E888
:10040000F0E01082808182608083808181608083BF
:10041000E0E8F0E0808181608083E1EBF0E08081C2
:1004200084608083E0EBF0E0808181608083EAE794
:10043000F0E080818460808380818260808380811D
:10044000816080838081806880831092C1000895DC
:10045000982F8E3008F09E50977080910001829501
:10046000880F880F807C892B80937C0080917A0094
:10047000806480937A0080917A0086FDFCCF209181
:10048000780040917900942F80E030E0282B392BC0
:10049000C90108951F93CF93DF93182FEB0161E0FB
:1004A0000E94AA02209709F44AC0CF3FD10509F45F
:1004B00049C0E12FF0E0E255FF4F84918330C1F055
:1004C000843028F4813051F08230B1F50CC0863090
:1004D00019F1873049F1843079F514C084B580680A
:1004E00084BDC7BD33C084B5806284BDC8BD2EC085
:1004F00080918000806880938000D0938900C093B1
:10050000880024C080918000806280938000D09316
:100510008B00C0938A001AC08091B00080688093DD
:10052000B000C093B30012C08091B000806280938D
:10053000B000C093B4000AC0C038D1051CF4812FAC
:1005400060E002C0812F61E00E94D002DF91CF9174
:100550001F910895482F50E0CA0186569F4FFC0115
:1005600024914A575F4FFA0184918823C1F0E82F04
:10057000F0E0EE0FFF1FE859FF4FA591B4916623FD
:1005800041F49FB7F8948C91209582238C939FBF60
:1005900008959FB7F8948C91822B8C939FBF0895F8
:1005A000482F50E0CA0182559F4FFC012491CA0197
:1005B00086569F4FFC0194914A575F4FFA01349140
:1005C000332309F440C0222351F1233071F0243049
:1005D00028F42130A1F0223011F514C02630B1F0FA
:1005E0002730C1F02430D9F404C0809180008F7787
:1005F00003C0809180008F7D8093800010C084B5FF
:100600008F7702C084B58F7D84BD09C08091B00012
:100610008F7703C08091B0008F7D8093B000E32F6F
:10062000F0E0EE0FFF1FEE58FF4FA591B4912FB7EA
:10063000F894662321F48C919095892302C08C91C3
:10064000892B8C932FBF08952F923F924F925F92E8
:100650006F927F928F929F92AF92BF92CF92DF92D2
:10066000EF92FF920F931F93DF93CF93CDB7DEB737
:100670003B014C0119012A016D897E898F89988D72
:100680006A197B098C099D09621A730A840A950A02
:10069000A40193010E946D03E218F30804091509EF
:1006A000A80197010E948C032A0D3B1D4C1D5D1D66
:1006B000B901CA01CF91DF911F910F91FF90EF9087
:1006C000DF90CF90BF90AF909F908F907F906F9072
:1006D0005F904F903F902F900895629FD001739F3D
:1006E000F001829FE00DF11D649FE00DF11D929FCE
:1006F000F00D839FF00D749FF00D659FF00D99270D
:10070000729FB00DE11DF91F639FB00DE11DF91F30
:10071000BD01CF011124089597FB092E05260ED0A7
:1007200057FD04D014D00AD0001C38F450954095E1
:10073000309521953F4F4F4F5F4F0895F6F79095B5
:100740008095709561957F4F8F4F9F4F0895A1E2DF
:100750001A2EAA1BBB1BFD010DC0AA1FBB1FEE1F3B
:10076000FF1FA217B307E407F50720F0A21BB30B86
:10077000E40BF50B661F771F881F991F1A9469F702
:1007800060957095809590959B01AC01BD01CF015E
:060790000895F894FFCF6C
:02079600010060
:00000001FF
