:100000000C9435000C945D000C945D000C945D0024
:100010000C945D000C945D000C945D000C945D00EC
:100020000C945D000C945D000C945D000C945D00DC
:100030000C945D000C945D000C945D000C945D00CC
:100040000C94A9000C945D000C94A8010C94EF0191
:100050000C945D000C945D000C945D000C945D00AC
:100060000C945D000C945D00550311241FBECFEF6E
:10007000D8E0DEBFCDBF11E0A0E0B1E0E8E8FFE0EE
:1000800002C005900D92A431B107D9F711E0A4E1A7
:10009000B1E001C01D92A63CB107E1F710E0CAE64D
:1000A000D0E004C02297FE010E94BE07C836D107E7
:1000B000C9F70E949A000C94C2070C9400000E9499
:1000C0008501AA2797FDA095BA2FBC01CD010E94FA
:1000D000680623E030E040EA5BE30E9418070895D9
:1000E00080911401909115010E945F0020E030E0A2
:1000F00040E05FE30E94640520E030E048EC52E419
:100100000E941807AB01BC0187EA91E022E030E0D1
:100110000E94510568EE73E080E090E00E94F100DB
:10012000089587EA91E040E855E260E070E00E94BF
:100130002A020895CF93DF930E944A010E94910002
:10014000CCEDD1E00E9470002097E1F30E94DC0129
:10015000F9CF1F920F920FB60F9211242F933F9356
:100160008F939F93AF93BF9380911A0190911B013E
:10017000A0911C01B0911D0130911E010196A11D9D
:10018000B11D232F2D5F2D3720F02D570196A11D76
:10019000B11D20931E0180931A0190931B01A0931F
:1001A0001C01B0931D018091160190911701A0913F
:1001B0001801B09119010196A11DB11D809316017E
:1001C00090931701A0931801B0931901BF91AF91BB
:1001D0009F918F913F912F910F900FBE0F901F9085
:1001E00018959B01AC017FB7F8948091160190910E
:1001F0001701A0911801B091190166B5A89B05C01F
:100200006F3F19F00196A11DB11D7FBFBA2FA92F15
:10021000982F8827860F911DA11DB11D62E0880FC0
:10022000991FAA1FBB1F6A95D1F7BC012DC0FFB74C
:10023000F8948091160190911701A0911801B09146
:100240001901E6B5A89B05C0EF3F19F00196A11D65
:10025000B11DFFBFBA2FA92F982F88278E0F911D90
:10026000A11DB11DE2E0880F991FAA1FBB1FEA95CF
:10027000D1F7861B970B885E9340C8F2215030401F
:100280004040504068517C4F2115310541055105D2
:1002900071F60895789484B5826084BD84B58160D8
:1002A00084BD85B5826085BD85B5816085BDEEE67E
:1002B000F0E0808181608083E1E8F0E0108280815D
:1002C00082608083808181608083E0E8F0E08081CB
:1002D00081608083E1EBF0E0808184608083E0EBEB
:1002E000F0E0808181608083EAE7F0E080818460D3
:1002F000808380818260808380818160808380812F
:10030000806880831092C1000895982F8E3008F085
:100310009E509770809102018295880F880F807C93
:10032000892B80937C0080917A00806480937A008E
:1003300080917A0086FDFCCF209178004091790071
:10034000942F80E030E0282B392BC90108950895BF
:100350001F920F920FB60F9211242F933F934F933A
:100360008F939F93EF93FF934091C60020915F017D
:10037000309160012F5F3F4F2F733070809161018A
:10038000909162012817390759F0E0915F01F091CF
:100390006001E15EFE4F40833093600120935F0176
:1003A000FF91EF919F918F914F913F912F910F90DE
:1003B0000FBE0F901F901895E091B301F091B4011A
:1003C000E05CFF4F8191919120813181821B930BE1
:1003D0008F739070892B11F00E94A70108951F92CE
:1003E0000F920FB60F9211242F933F938F939F93E9
:1003F000EF93FF932091A3013091A4018091A50177
:100400009091A6012817390731F48091C1008F7DA2
:100410008093C10014C0E091A501F091A601ED59AF
:10042000FE4F20818091A5019091A60101968F73C6
:1004300090709093A6018093A5012093C600FF9130
:10044000EF919F918F913F912F910F900FBE0F9041
:100450001F901895AF92BF92DF92EF92FF920F9389
:100460001F93CF93DF93EC017A018B01DD244030A1
:1004700081EE580780E0680780E0780711F0DD24FE
:10048000D39491E0A92EB12CEC89FD89DD2069F08F
:10049000C5010E8C02C0880F991F0A94E2F7808371
:1004A00060E079E08DE390E005C0108260E874E8D8
:1004B0008EE190E0A80197010E949A0721503040F8
:1004C00040405040569547953795279580E120301C
:1004D000380720F0DD2011F0DD24D6CFE889F98936
:1004E0003083EA89FB892083EE89FF89408121E0FE
:1004F00030E0C9010A8C02C0880F991F0A94E2F704
:10050000482B4083EE89FF894081C9010B8C02C0D2
:10051000880F991F0A94E2F7482B4083EE89FF89E0
:100520004081C9010C8C02C0880F991F0A94E2F720
:10053000482B4083EE89FF8980810D8C02C0220FF9
:10054000331F0A94E2F7209528232083DF91CF916F
:100550001F910F91FF90EF90DF90BF90AF900895A3
:10056000DC011C96ED91FC911D97E05CFF4F219101
:10057000319180819181281B390B2F733070C90113
:100580000895DC011C96ED91FC911D97E05CFF4FF6
:1005900020813181E054F040DF01AE5BBF4F8D918F
:1005A0009C9111972817390719F42FEF3FEF07C0D7
:1005B0008D919C91E80FF91F8081282F30E0C901AF
:1005C0000895DC011C96ED91FC911D97E05CFF4FB6
:1005D00020813181E054F040DF01AE5BBF4F8D914F
:1005E0009C9111972817390719F42FEF3FEF10C08E
:1005F0008D919C911197E80FF91F20818D919C910D
:10060000119701968F73907011969C938E9330E0A2
:10061000C9010895FC0186859785DC01A05CBF4F68
:10062000FC01EE5BFF4F2D913C91119780819181F0
:1006300028173907C1F70895CF93DF93EC01EE85B2
:10064000FF85E05CFF4F20813181E054F0402F5F57
:100650003F4F2F733070DF01AE5BBF4F8D919C9188
:10066000119728173907D1F3E05CFF4F8081918102
:10067000E054F040E80FF91F6083EE85FF85E05CF1
:10068000FF4F31832083EE89FF89208181E090E054
:100690000D8C02C0880F991F0A94E2F7282B208343
:1006A00081E090E0DF91CF9108951092AA0110921D
:1006B000A90188EE93E0A0E0B0E08093AB019093B5
:1006C000AC01A093AD01B093AE0187E091E09093AF
:1006D000A8018093A7018FE191E09093B4018093EA
:1006E000B30183E691E09093B6018093B50185EC68
:1006F00090E09093B8018093B70184EC90E09093E0
:10070000BA018093B90180EC90E09093BC01809392
:10071000BB0181EC90E09093BE018093BD0186EC1B
:1007200090E09093C0018093BF0184E08093C10169
:1007300083E08093C20187E08093C30185E08093CA
:10074000C40181E08093C5010895CF92DF92EF92BA
:10075000FF920F931F93CF93DF937C016B018A016C
:10076000C0E0D0E00FC0D6016D916D01D701ED91D1
:10077000FC910190F081E02DC7010995C80FD91FA8
:10078000015010400115110571F7CE01DF91CF9195
:100790001F910F91FF90EF90DF90CF900895EF920F
:1007A000FF920F931F938C01DC01ED91FC9101905E
:1007B000F081E02D6DE009957C01D801ED91FC916F
:1007C0000190F081E02DC8016AE009959C012E0D91
:1007D0003F1DC9011F910F91FF90EF900895CF9396
:1007E000DF93DB010D900020E9F71197A61BB70BF3
:1007F000EC01E881F9810280F381E02DAD010995DA
:10080000DF91CF9108954F925F927F928F929F9246
:10081000AF92BF92CF92DF92EF92FF920F931F930E
:10082000DF93CF93CDB7DEB7A1970FB6F894DEBFB5
:100830000FBECDBF2C01742ECB01223008F42AE06C
:1008400019A231E2C32ED12CCC0EDD1E822E9924AA
:10085000AA24BB24672D752FA50194010E949A0735
:1008600079018A01C801B701A50194010E947B07A3
:10087000472D461B0894C108D1084A3014F4405D46
:1008800001C0495CF6014083E114F1040105110542
:1008900021F07E2C5F2DC801DDCFC201B6010E9480
:1008A000EF03A1960FB6F894DEBF0FBECDBFCF9178
:1008B000DF911F910F91FF90EF90DF90CF90BF904D
:1008C000AF909F908F907F905F904F900895DC0144
:1008D0002115310541F4ED91FC910190F081E02D5D
:1008E000642F099508950E9403040895CF92DF9222
:1008F000EF92FF920F931F93CF93DF93EC016A0166
:100900007B012115310541F4E881F9810190F081E5
:10091000E02D642F09951FC02A303105D1F477FFEF
:1009200017C0E881F9810190F081E02D6DE2099511
:100930008C0144275527BA014C195D096E097F09BE
:10094000CE012AE00E9403049801280F391F04C039
:100950002AE00E9403049C01C901DF91CF911F91FD
:100960000F91FF90EF90DF90CF9008957F928F923C
:100970009F92AF92BF92CF92DF92EF92FF920F932E
:100980001F93CF93DF934C017A018B01722ECB0121
:10099000BA0120E030E040E050E00E94C90587FD48
:1009A00003C0C0E0D0E00EC0D401ED91FC910190F5
:1009B000F081E02DC4016DE20995EC0117FB109563
:1009C00017F9109520E030E040E05FE3AA240BC067
:1009D000CA01B90120E030E040E251E40E94CD05B7
:1009E0009B01AC01A394A71498F3C801B7010E941E
:1009F00065055B016C010E943A067B018C01C40114
:100A0000B801A7012AE030E00E946704C80FD91F8F
:100A1000772039F0C40160E071E00E94EF03C80F55
:100A2000D91FC801B7010E9466069B01AC01C6012F
:100A3000B5010E94640524C020E030E040E251E4AA
:100A40000E9418077B018C010E9435065B016C0136
:100A5000CC24B7FCC094DC2CC401B601A5012AE06B
:100A600030E00E947604C80FD91FC601B5010E946C
:100A700068069B01AC01C801B7010E9464057A9425
:100A80007720D1F6CE01DF91CF911F910F91FF908A
:100A9000EF90DF90CF90BF90AF909F908F907F901E
:100AA0000895EF92FF920F931F937C010E94B6046A
:100AB0008C01C7010E94CF03080F191FC8011F91A5
:100AC0000F91FF90EF9008955058BB27AA270ED0A2
:100AD00075C166D130F06BD120F031F49F3F11F435
:100AE0001EF45BC10EF4E095E7FB51C1E92F77D10D
:100AF00080F3BA17620773078407950718F071F43B
:100B00009EF58FC10EF4E0950B2EBA2FA02D0B0190
:100B1000B90190010C01CA01A0011124FF27591B42
:100B200099F0593F50F4503E68F11A16F040A22F48
:100B3000232F342F4427585FF3CF469537952795B9
:100B4000A795F0405395C9F77EF41F16BA0B620BB8
:100B5000730B840BBAF09150A1F0FF0FBB1F661FFF
:100B6000771F881FC2F70EC0BA0F621F731F841F42
:100B700048F4879577956795B795F7959E3F08F068
:100B8000B3CF9395880F08F09927EE0F9795879527
:100B90000895D9D008F481E008950CD00FC107D191
:100BA00040F0FED030F021F45F3F19F0F0C0511159
:100BB00039C1F3C014D198F39923C9F35523B1F384
:100BC000951B550BBB27AA2762177307840738F0BC
:100BD0009F5F5F4F220F331F441FAA1FA9F333D01B
:100BE0000E2E3AF0E0E830D091505040E695001CCF
:100BF000CAF729D0FE2F27D0660F771F881FBB1F8B
:100C0000261737074807AB07B0E809F0BB0B802D64
:100C1000BF01FF2793585F4F2AF09E3F510568F0B0
:100C2000B6C000C15F3FECF3983EDCF38695779544
:100C30006795B795F7959F5FC9F7880F911D9695B2
:100C4000879597F90895E1E0660F771F881FBB1F0E
:100C5000621773078407BA0720F0621B730B840BBB
:100C6000BA0BEE1F88F7E095089504D06894B1118F
:100C7000D9C00895BCD088F09F5790F0B92F99271C
:100C8000B751A0F0D1F0660F771F881F991F1AF097
:100C9000BA95C9F712C0B13081F0C3D0B1E0089560
:100CA000C0C0672F782F8827B85F39F0B93FCCF3E1
:100CB000869577956795B395D9F73EF4909580958D
:100CC000709561957F4F8F4F9F4F0895E89409C0AD
:100CD00097FB3EF490958095709561957F4F8F4F6F
:100CE0009F4F9923A9F0F92F96E9BB279395F69585
:100CF000879577956795B795F111F8CFFAF4BB0F03
:100D000011F460FF1BC06F5F7F4F8F4F9F4F16C066
:100D1000882311F096E911C0772321F09EE8872FF0
:100D2000762F05C0662371F096E8862F70E060E0AC
:100D30002AF09A95660F771F881FDAF7880F969525
:100D4000879597F90895990F0008550FAA0BE0E8C9
:100D5000FEEF16161706E807F907C0F0121613067D
:100D6000E407F50798F0621B730B840B950B39F4BD
:100D70000A2661F0232B242B252B21F408950A2623
:100D800009F4A140A6958FEF811D811D089597F963
:100D90009F6780E870E060E008959FEF80EC089521
:100DA00000240A941616170618060906089500244A
:100DB0000A9412161306140605060895092E0394C4
:100DC000000C11F4882352F0BB0F40F4BF2B11F438
:100DD00060FF04C06F5F7F4F8F4F9F4F089557FD97
:100DE0009058440F551F59F05F3F71F04795880F99
:100DF00097FB991F61F09F3F79F087950895121630
:100E000013061406551FF2CF4695F1DF08C01616DB
:100E100017061806991FF1CF86957105610508948C
:100E20000895E894BB2766277727CB0197F90895A3
:100E30000BD0C4CFB5DF28F0BADF18F0952309F046
:100E4000A6CFABCF1124EECFCADFA0F3959FD1F38D
:100E5000950F50E0551F629FF001729FBB27F00D68
:100E6000B11D639FAA27F00DB11DAA1F649F6627BD
:100E7000B00DA11D661F829F2227B00DA11D621F0C
:100E8000739FB00DA11D621F839FA00D611D221FC6
:100E9000749F3327A00D611D231F849F600D211DAA
:100EA000822F762F6A2F11249F5750408AF0E1F04D
:100EB00088234AF0EE0FFF1FBB1F661F771F881F96
:100EC00091505040A9F79E3F510570F060CFAACFD6
:100ED0005F3FECF3983EDCF3869577956795B79581
:100EE000F795E7959F5FC1F7FE2B880F911D9695AB
:100EF000879597F90895629FD001739FF001829FB3
:100F0000E00DF11D649FE00DF11D929FF00D839F98
:100F1000F00D749FF00D659FF00D9927729FB00D35
:100F2000E11DF91F639FB00DE11DF91FBD01CF0148
:100F300011240895A1E21A2EAA1BBB1BFD010DC0AE
:100F4000AA1FBB1FEE1FFF1FA217B307E407F50779
:100F500020F0A21BB30BE40BF50B661F771F881F55
:100F6000991F1A9469F760957095809590959B01EB
:100F7000AC01BD01CF010895EE0FFF1F0590F49164
:080F8000E02D0994F894FFCF65
:100F88002E0001000000001C03A503B002E102C10D
:040F9800020A030046
:00000001FF
